:100000000C9472000C949A000C949A000C949A0030
:100010000C949A000C949A000C949A000C949A00F8
:100020000C949A000C949A000C949A000C947B0304
:100030000C949A000C949A000C949A000C949A00D8
:100040000C94D9020C949A000C9449030C94230349
:100050000C949A000C949A000C949A000C949A00B8
:100060000C949A000C949A00B0031604930428058B
:10007000D7058606F3063D07B107220883080C0959
:100080008209DF097B0AEC0A000000002400270037
:100090002A0000000000250028002B0000000000BE
:1000A00023002600290004040404040404040202BA
:1000B00002020202030303030303010204081020E7
:1000C00040800102040810200102040810200000F2
:1000D0000008000201000003040700000000000007
:1000E0000000C50B11241FBECFEFD8E0DEBFCDBF8F
:1000F00012E0A0E0B1E0E8E0FFE102C005900D925F
:10010000A030B107D9F722E0A0E0B2E001C01D9213
:10011000AB3CB207E1F710E0C2E7D0E004C02197A2
:10012000FE010E945C0FC137D107C9F70E94FA0B8C
:100130000C94820F0C940000FC01538D448D252FEC
:1001400030E0842F90E0821B930B541710F0CF9671
:10015000089501970895FC01918D828D981761F0A3
:10016000828DDF01A80FB11D5D968C91928D9F5FEE
:100170009F73928F90E008958FEF9FEF0895FC0199
:10018000918D828D981731F0828DE80FF11D858D4C
:1001900090E008958FEF9FEF0895FC01918D228DDF
:1001A000892F90E0805C9F4F821B91098F73992764
:1001B0000895FC01848DDF01A80FB11DA35ABF4F24
:1001C0002C91848D90E001968F739927848FA68956
:1001D000B7892C93A089B1898C91837080648C93AA
:1001E000938D848D981306C00288F389E02D808159
:1001F0008F7D80830895EF92FF920F931F93CF938B
:10020000DF93EC0181E0888F9B8D8C8D981305C066
:10021000E889F989808185FD26C0F62E0B8D10E0D6
:100220000F5F1F4F0F731127E02E8C8DE8120CC04B
:100230000FB607FCFACFE889F989808185FFF5CFF1
:10024000CE010E94D900F1CF8B8DFE01E80FF11D88
:10025000E35AFF4FF0829FB7F8940B8FEA89FB892E
:10026000808180620AC09FB7F894EE89FF8960831D
:10027000E889F98980818370806480839FBF81E0F1
:1002800090E0DF91CF911F910F91FF90EF90089533
:10029000CF93DF93EC01888D8823C9F0EA89FB892D
:1002A000808185FD05C0A889B9898C9186FD0FC024
:1002B0000FB607FCF5CF808185FFF2CFA889B989F9
:1002C0008C9185FFEDCFCE010E94D900E7CFDF9161
:1002D000CF9108958CE292E00E94CD0021E0892B1D
:1002E00009F420E0822F089580E090E0892B29F026
:1002F0000E946A0181110C9400000895833081F0FE
:1003000028F4813099F08230A1F008958730A9F067
:100310008830B9F08430D1F4809180008F7D03C0A3
:10032000809180008F7780938000089584B58F77C7
:1003300002C084B58F7D84BD08958091B0008F7711
:1003400003C08091B0008F7D8093B0000895CF935B
:10035000DF93282F30E0F901E253FF4F8491F90138
:10036000E654FF4FD491F901EA55FF4FC491CC23D5
:1003700091F081110E947E01EC2FF0E0EE0FFF1F43
:10038000E456FF4FA591B491EC91ED2381E090E00C
:1003900021F480E002C080E090E0DF91CF910895E9
:1003A0001F93CF93DF93282F30E0F901E253FF4FE3
:1003B0008491F901E654FF4FD491F901EA55FF4FBA
:1003C000C491CC23C1F0162F81110E947E01EC2F25
:1003D000F0E0EE0FFF1FEE56FF4FA591B4919FB7CF
:1003E000F894111104C08C91D095D82302C0EC91DF
:1003F000DE2BDC939FBFDF91CF911F910895CF93A8
:10040000DF9390E0FC01E654FF4F2491FC01EA5594
:10041000FF4F8491882361F190E0880F991FFC01C0
:10042000E857FF4FC591D491FC01EE56FF4FA591BF
:10043000B491611109C09FB7F894888120958223F7
:100440008883EC912E230BC0623061F49FB7F8943F
:100450008881322F309583238883EC912E2B2C9327
:100460009FBF06C08FB7F894E8812E2B28838FBFDB
:10047000DF91CF9108958E3008F08E5087708064A0
:1004800080937C0080917A00806480937A008091D0
:100490007A0086FDFCCF809178002091790090E071
:1004A000922B0895CF92DF92EF92FF920F931F93BA
:1004B000CF93DF936C017A018B01C0E0D0E0CE15C1
:1004C000DF0581F0D8016D918D01D601ED91FC9190
:1004D0000190F081E02DC6010995892B11F021963C
:1004E000EECF7E01C701DF91CF911F910F91FF9059
:1004F000EF90DF90CF900895089580E090E0089508
:10050000CF93DF9380910A02882369F080910002E3
:100510008F5F803119F08093000202C010920002B8
:10052000C091000202C0C0910001D0E06C2F617048
:1005300087E00E94D001BE0175956795617088E0E3
:100540000E94D001BE01759567957595679561709C
:100550008CE00E94D00123E0D595C7952A95E1F75C
:100560006C2F61708AE0DF91CF910C94D0010097DD
:1005700069F0FC0101900020E9F73197AF01481BB9
:10058000590BBC018CE292E00C94520280E090E0A6
:100590000895CF93DF930E94B702EC018FE191E0C1
:1005A0000E94B7028C0F9D1FDF91CF9108950E948A
:1005B0007D0F1F920F920FB60F9211242F933F932E
:1005C0008F939F93AF93BF938091280290912902BC
:1005D000A0912A02B0912B023091270223E0230F31
:1005E0002D3720F40196A11DB11D05C026E8230F6B
:1005F0000296A11DB11D209327028093280290939B
:100600002902A0932A02B0932B0280912302909199
:100610002402A0912502B09126020196A11DB11DD0
:100620008093230290932402A0932502B093260284
:10063000BF91AF919F918F913F912F910F900FBEDE
:100640000F901F9018951F920F920FB60F921124C2
:100650002F933F934F935F936F937F938F939F93CA
:10066000AF93BF93EF93FF938CE292E00E94D90087
:10067000FF91EF91BF91AF919F918F917F916F917A
:100680005F914F913F912F910F900FBE0F901F9050
:1006900018951F920F920FB60F9211242F938F93DC
:1006A0009F93EF93FF93E0913C02F0913D02808194
:1006B000E0914202F091430282FD12C0908180914C
:1006C00045028F5F8F7320914602821751F0E091AF
:1006D0004502F0E0E45DFD4F958F8093450201C037
:1006E0008081FF91EF919F918F912F910F900FBE7D
:1006F0000F901F9018951F920F920FB60F92112412
:100700004F925F926F927F928F929F92AF92BF9221
:10071000CF92DF92EF92FF920F931F932F933F930D
:100720004F935F936F937F938F939F93AF93BF93F9
:10073000EF93FF93E09100018E2F90E0FC01319741
:10074000E031F10508F0C0C7EC5CFF4FC090060235
:10075000D0900702E0900802F09009020C945C0F20
:1007600080911D0290911E020091190210911A02AF
:10077000209115023091160240911D0250911E02E7
:100780006091190270911A022601370104C0759414
:100790006794579447948A95D2F7F601E421F5219E
:1007A000D701C60104C0B595A795979587950A9579
:1007B000D2F78C299D298E0F9F1F2F5F3F4F360147
:1007C000470104C095948794779467942A95D2F74B
:1007D000862197214601570104C0B594A7949794A8
:1007E00087946A95D2F78C9C90018D9C300D9C9CCF
:1007F000300D112404C0F594E794D794C7944A951A
:10080000D2F7C222D322C82AD92AD0920502C09296
:1008100004028AE090E090930A018093090110920B
:10082000200210921F028EE090E092C321E0C216D7
:10083000D104E206F10464F080E090E0AFEFBFEF96
:100840008093060290930702A0930802B0930902D6
:100850008091060290910702A0910802B0910902CE
:10086000609115027091160240911D0250911E0276
:100870000091190210911A02E0911902F0911A02E6
:1008800020911D0230911E026C017D0104C0F5947F
:10089000E794D794C7946A95D2F7052E000C660B9F
:1008A000770B4C295D296E297F296C017D010A2E69
:1008B00004C0F594E794D794C7940A94D2F7C42A55
:1008C000D52AE62AF72A0C9DB0010D9D700D1C9DBE
:1008D000700D1124319604C0B595A795979587950D
:1008E000EA95D2F72F5F3F4F82239323860F971FFE
:1008F00090930502809304028CE090E090930A01AB
:10090000809309011092200210921F0224E130E02E
:10091000309308012093070124E030E030931C025B
:1009200020931B02E8C48091150290911602B70132
:10093000A60104C075956795579547958A95D2F796
:100940009601257233272427352780911D02909127
:100950001E022601370104C075946794579447948A
:100960008A95D2F7D301C2018C259D258C0D9D1D42
:1009700040911D0250911E023601470104C095941A
:100980008794779467944A95D2F7672868286928EE
:1009900029F446E050E060E070E004C042E050E03E
:1009A00060E070E0E0911902F0911A0246015701EF
:1009B00004C0B594A79497948794EA95D2F74821F8
:1009C00059216A217B21C49EF001C59EF00DD49E61
:1009D000F00D11248E1B9F0B46015701880C991CAA
:1009E000AA1CBB1C4091190250911A02052E000C42
:1009F000660B770B4C215D216E217F21452B462B09
:100A0000472B41F064E0F594E794D794C7946A9536
:100A1000D1F707C05AE0F594E794D794C7945A9554
:100A2000D1F78C209D2088269926282939293093B2
:100A30000502209304028EE190E090930A018093D6
:100A4000090186E090E09093200280931F02A2C0EB
:100A5000A0911902B0911A0200911D0210911E027C
:100A6000E0911502F0911602A70196010E94FF0E77
:100A7000DC01CB0104C0B595A795979587950A959C
:100A8000D2F725E230E02E1B3F0B2C213D21B9018E
:100A900068277927D701C6011BE0B595A7959795DB
:100AA00087951A95D1F78C259D258C0D9D1D970155
:100AB000860146E035952795179507954A95D1F714
:100AC000012B022B032B49F480901D0290901E02F3
:100AD000092C000CAA08BB0805C0B2E08B2E912C93
:100AE000A12CB12C409115025091160220911902AF
:100AF00030911A02240F351F2601370104C0759466
:100B00006794579447942A95D2F784209520A6207D
:100B1000B720C89C9001C99C300DD89C300D112481
:100B2000821B930B97018601000F111F221F331F99
:100B30004601570146E084229924AA24BB2489282F
:100B40008A288B2841F0F4E0F594E794D794C79471
:100B5000FA95D1F70BC0409115025091160204C0CE
:100B6000F594E794D794C7944A95D2F7C022D1223E
:100B70008C259D25682B792B7093050260930402C8
:100B80008CE090E090930A0180930901109220027A
:100B900010921F0280E190E090930801809307017A
:100BA00010921C0210921B028AE090E085C5A09171
:100BB0001502B0911602E0911902F0911A02A701F4
:100BC00096010E94FF0EDC01CB0152E0B595A7957E
:100BD000979587955A95D1F72EE130E02E1B3F0B64
:100BE0002C213D21B9016827792780911902909124
:100BF0001A022601370104C07594679457944794EC
:100C00008A95D2F7D301C2018C259D258C0D9D1D9F
:100C100097018601E6E03595279517950795EA95A2
:100C2000D1F7012B022B032B29F080901D0290900D
:100C30001E0204C0809015029090160220911D02A1
:100C400030911E022601370104C0759467945794B1
:100C500047942A95D2F7092C000CAA08BB088420D7
:100C60009520A620B720C89C9001C99C300DD89C27
:100C7000300D1124821B930B97018601000F111F69
:100C8000221F331F8090190290901A02092C000C29
:100C9000AA08BB088C209D20AE20BF2089288A2866
:100CA0008B2841F024E0F594E794D794C7942A95D3
:100CB000D1F70BC0409115025091160204C0F59473
:100CC000E794D794C7944A95D2F70C211D210827A1
:100CD0001927602B712B709305026093040288E141
:100CE00090E090930A0180930901109220021092E3
:100CF0001F0286E190E09093080180930701109213
:100D00001C0210921B0280E190E0D6C420911D02CB
:100D100030911E02A0911D02B0911E0200911D0291
:100D200010911E02E0911502F091160280911902B5
:100D300090911A02B701A60104C075956795579561
:100D400047952A95D2F7960124233523B701A601AA
:100D500004C075956795579547950A95D2F74C212C
:100D60005D21420F531F9701860104C035952795D9
:100D700017950795AA95D2F7401B510B970186014D
:100D800004C03595279517950795EA95D2F7092E52
:100D9000000CAA0BBB0B80239123A223B3238C9DB1
:100DA00090018D9D300D9C9D300D1124420F531FDD
:100DB00050930502409304022AE030E030930A0188
:100DC0002093090183E090E09093200280931F021A
:100DD0004CE150E0509308014093070110921C022F
:100DE00010921B02E7C28091190290911A023601FB
:100DF000470104C095948794779467948A95D2F7B5
:100E0000D401C3018C219D21AE21BF21892B8A2BC6
:100E10008B2B29F080911D0290911E020CC08091B5
:100E2000150290911602F094E094D094C094C11CE5
:100E3000D11CE11CF11C04C0F594E794D794C7942D
:100E40008A95D2F7D0920502C09204028AE090E01F
:100E500090930A01809309011092200210921F02C0
:100E600026E130E0309308012093070190931C02A3
:100E700080931B0288E090E01FC421E0C216D104D9
:100E8000E206F10464F080E090E0AFEFBFEF809302
:100E9000060290930702A0930802B0930902809182
:100EA000060290910702A0910802B0910902609198
:100EB0001D0270911E024091150250911602E091A0
:100EC0001902F0911A022091190230911A026C0154
:100ED0007D0104C0F594E794D794C7946A95D2F73E
:100EE000052E000C660B770B4C295D296E297F2996
:100EF0006C017D010A2E04C0F594E794D794C79441
:100F00000A94D2F7C42AD52AE62AF72AEC9DB00122
:100F1000ED9D700DFC9D700D11242F5F3F4F04C09F
:100F2000B595A795979587952A95D2F7860F971F20
:100F300090930502809304028CE090E090930A0164
:100F4000809309011092200210921F0284E190E028
:100F5000909308018093070110921C0210921B02CB
:100F6000ABC340911D0250911E0260911D02709111
:100F70001E02209115023091160280911902909163
:100F80001A02A0911502B0911602262337232601DA
:100F9000370104C075946794579447942A95D2F703
:100FA000930182013601470104C095948794779498
:100FB00067944A95D2F706291729282939290C9DC3
:100FC000F0010D9DF00D1C9DF00D11247727F7FC0D
:100FD0007A956F2D5E2D4D2D48235923CF01842303
:100FE0009523B701A60104C0759567955795479558
:100FF000AA95D2F74C215D2116E0F594E794D79499
:10100000C7941A95D1F7C42AD52AC826D926D092D2
:101010000502C092040280E190E090930A0180935F
:1010200009011092200210921F0286E590E0909331
:1010300008018093070110921C0210921B028AE1A2
:1010400090E03AC3409115025091160280911D0222
:1010500090911E022091190230911A024601570107
:1010600004C0B594A794979487944A95D2F747E023
:10107000489DB001499D700D11244601570104C0DF
:10108000B594A794979487948A95D2F7D501C40113
:10109000E3E0880F991FEA95E1F7862B972B46012D
:1010A000570104C0B594A794979487942A95D2F7D2
:1010B000489D9001499D300D1124822B932BF7E020
:1010C000F594E794D794C794FA95D1F7C822D9221A
:1010D000D0920502C092040288E090E090930A0149
:1010E000809309011092200210921F0286E190E085
:1010F000909308018093070110921C0210921B022A
:101100008DE090E0D9C280911D0290911E02409125
:10111000190250911A022091150230911602A090E6
:101120001902B0901A02009115021091160260E89F
:1011300070E0641B750BE9E0F0E0AF01421B530B5C
:101140002601370104C075946794579447944A95D3
:10115000D2F702C0660F771F4A94E2F70E94480F49
:10116000A701960104C055954795379527958A950F
:10117000D2F7D5010E94FF0E9B01AC01C701B60159
:101180000E94380F4B015C01D801A70196010E9413
:10119000FF0EDC01CB0154E0880F991FAA1FBB1F73
:1011A0005A95D1F78C9D90018D9D300D9C9D300DF1
:1011B0001124D501C40104C0B595A79597958795CD
:1011C0002A95D2F762E1B595A795979587956A9587
:1011D000D1F7909305028093040280E190E0909310
:1011E0000A018093090184E090E0909320028093AB
:1011F0001F0286E190E0909308018093070181E04F
:1012000090E090931C0280931B02F0930601E09300
:10121000050182E090E06AC140911D0250911E02DA
:101220008090190290901A02A0901502B0901602B8
:101230002091190230911A028091150290911602A4
:10124000A0911902B0911A025CE05C9DF0015D9DD5
:10125000F00D11242601370104C07594679457944A
:1012600047944A95D2F78F01042115218C9CF001F7
:101270008D9CF00D9C9CF00D1124B701A60104C0BB
:101280007595679557954795AA94D2F74E235F2396
:10129000F801E42BF52BBD01660F771F660F771F52
:1012A0000E94480F2C9DC0012D9D900D3C9D900DDE
:1012B0001124682379236E2B7F2B62507109709360
:1012C00005026093040282E190E090930A0180930A
:1012D00009011092200210921F0288E090E0909382
:1012E00008018093070181E090E090931C028093B5
:1012F0001B028EE090E0909306018093050185E04B
:1013000090E0F4C080911D0290911E02A0911902FC
:10131000B0911A02E0911502F0911602B701A601F0
:1013200004C075956795579547958A95D2F74C9D5A
:1013300080014D9D100D5C9D100D1124A70196019B
:101340000E94FF0EDC01CB0127E0B595A79597958C
:1013500087952A95D1F7B8016823792333E0CC0C1F
:10136000DD1CEE1CFF1C3A95D1F704C0F594E79400
:10137000D794C794EA95D2F7C622D722D092050215
:10138000C092040282E190E090930A0180930901E7
:101390002AE030E03093200220931F028EE090E09C
:1013A000909308018093070181E090E090931C02E4
:1013B00080931B02309306012093050197C0809112
:1013C0001502909116023601470104C09594879446
:1013D000779467948A95D2F7960121703327262552
:1013E0003725D701C601F5E1B595A795979587955E
:1013F000FA95D1F78C259D258C0D9D1DB701A60171
:10140000A4E07595679557954795AA95D1F741152D
:1014100051056105710529F08090190290901A021A
:1014200004C080901D0290901E02A0911D02B091F8
:101430001E02B595A795ECE0F0E0EA1BFB0B260138
:10144000370104C07594679457944794EA95D2F78E
:10145000092C000CAA08BB0884209520A620B720E0
:10146000C89CF001C99CF00DD89CF00D11248E1B76
:101470009F0B46015701880C991CAA1CBB1CE091CC
:101480001D02F0911E02EC70FF27EF2B11F06A0194
:1014900007C06AE0F594E794D794C7946A95D1F7AA
:1014A0008C209D2088259925282B392B30930502E7
:1014B0002093040288E090E090930A018093090150
:1014C0001092200210921F0280E190E09093080198
:1014D0008093070110921C0210921B0281E090E0A1
:1014E000909306018093050186E090E090931802A6
:1014F00080931702E9C020911D0230911E0284E002
:1015000090E002C0880F991F2A95E2F7092E000C7F
:10151000AA0BBB0B8C219D21AE21BF21892B8A2BCD
:101520008B2BB9F02091190230911A02809115028B
:101530009091160204C0F594E794D794C7942A9525
:10154000D2F704C0F594E794D794C7948A95D2F75C
:1015500028C0D701C60154E0B595A7959795879502
:101560005A95D1F740911502509116022091190217
:1015700030911A0202C0440F551F2A95E2F7052E3A
:10158000000C660B770B4C215D216E217F21452BD2
:10159000462B472B21F0CC0CDD1CEE1CFF1CC82A6F
:1015A000D92AD0920502C092040288E090E090937C
:1015B0000A01809309011092200210921F0289E013
:1015C00090E0909308018093070110921C02109202
:1015D0001B0285E090E070C020911D0230911E0238
:1015E00084E090E002C0880F991F2A95E2F7092E47
:1015F000000CAA0BBB0B8C219D21AE21BF21892B96
:101600008A2B8B2B99F08091190290911A0204C0B9
:10161000F594E794D794C7948A95D2F733E0F5947C
:10162000E794D794C7943A95D1F72CC080911502CE
:10163000909116024601570104C0B594A79497945F
:1016400087948A95D2F7D501C4012091190230916F
:101650001A0243E050E002C0440F551F2A95E2F7FA
:10166000052E000C660B770B4C215D216E217F212E
:10167000452B462B472B21F0CC0CDD1CEE1CFF1C10
:10168000C82AD92AD0920502C092040288E090E0CC
:1016900090930A01809309011092200210921F0278
:1016A00089E090E0909308018093070110921C025A
:1016B00010921B0286E090E0909306018093050152
:1016C0001092180210921702809104029091050264
:1016D0008093B3008091010190910201092E000CCA
:1016E000AA0BBB0B409106025091070260910802C1
:1016F00070910902840F951FA61FB71F80930602E1
:1017000090930702A0930802B0930902809102020D
:10171000909103020196811524E0920729F090939D
:1017200003028093020212C010920302109202027E
:101730006091010281E068276093010286E00E94C7
:10174000D00180910A0281110E948002FF91EF91E5
:10175000BF91AF919F918F917F916F915F914F91C9
:101760003F912F911F910F91FF90EF90DF90CF90BD
:10177000BF90AF909F908F907F906F905F904F90B1
:101780000F900FBE0F901F901895ECE2F2E01382BD
:10179000128288EE93E0A0E0B0E084839583A68374
:1017A000B78381E191E09183808385EC90E0958718
:1017B000848784EC90E09787868780EC90E0918B1B
:1017C000808B81EC90E0938B828B82EC90E0958B08
:1017D000848B86EC90E0978B868B118E128E138E05
:1017E000148E80910B0190910C019093CA0280930A
:1017F000C9020895CF93DF93CDB7DEB7A1970FB697
:10180000F894DEBF0FBECDBF789484B5826084BDEE
:1018100084B5816084BD85B5826085BD85B58160F4
:1018200085BD80916E00816080936E001092810072
:10183000809181008260809381008091810081602D
:1018400080938100809180008160809380008091EE
:10185000B10084608093B1008091B000816080937A
:10186000B00080917A00846080937A0080917A0041
:10187000826080937A0080917A00816080937A0000
:1018800080917A00806880937A001092C10061E0B4
:101890008DE00E94FF0161E087E00E94FF0161E0AE
:1018A00088E00E94FF0161E08CE00E94FF0161E09E
:1018B0008AE00E94FF0161E086E00E94FF0161E092
:1018C00085E00E94FF0162E082E00E94FF0162E089
:1018D00083E10E94FF0161E08BE00E94FF018091A3
:1018E000B6008F798093B6008091B00083608093BA
:1018F000B0008091B100877F8093B1008091B000EB
:101900008F7B80688093B0008091B0008F7C809343
:10191000B0008091B100887F81608093B100109207
:10192000B300F89480918100877E88608093810065
:10193000809180008C7F8093800080918100887FDF
:1019400081608093810020910B0130910C01032E66
:10195000000C440B550B60E074E284EF90E00E94B1
:10196000D50E309389002093880080916F008260AB
:1019700080936F0078940E94800211E000E1CC24F3
:10198000CA9483E0D82EE12CF12C412C94E2592EFC
:1019900094EF692E712C82E00E94A701209122020F
:1019A000892B09F03DC0211119C0109322022FB7D5
:1019B000F8948091280290912902A0912A02B09176
:1019C0002B022FBF8093100290931102A09312025A
:1019D000B093130282E291E00E94C9022FB7F894FB
:1019E0008091280290912902A0912A02B0912B02A5
:1019F0002FBF40911002509111026091120270911C
:101A00001302841B950BA60BB70B81399140A105DE
:101A1000B10508F44BC080911402811147C0B7C1D1
:101A2000222309F443C080911402882339F01092D4
:101A300014028BE391E00E94C90236C0809100013C
:101A4000803121F08F5F8093000102C0109300016C
:101A500084E591E00E94C9028FE691E00E94B702FE
:101A60002091000130E040E050E019A25E0181E2E7
:101A7000A80EB11CCA01B9012AE030E040E050E0F4
:101A80000E94070F605DF50162935F01211531052A
:101A90004105510579F7CF010E94B7028FE191E02E
:101AA0000E94B7020E9480021092220283E10E94EB
:101AB000A70120912102892B09F03DC0211119C0F5
:101AC000109321022FB7F894809128029091290257
:101AD000A0912A02B0912B022FBF80930C02909309
:101AE0000D02A0930E02B0930F0289E791E00E94CD
:101AF000C9022FB7F8948091280290912902A091F1
:101B00002A02B0912B022FBF40910C0250910D027E
:101B100060910E0270910F02841B950BA60BB70B00
:101B200081399140A105B10508F440C080910B02B4
:101B300081113CC033C1222329F180910B028823FB
:101B400069F010920B0281E991E00E94C902809134
:101B500000018F5F8093000181E015C0809100013A
:101B6000823020F081508093000104C0813011F454
:101B70000093000180EB91E00E94C9020E94800264
:101B80001092210280E090910B0291110FC0909170
:101B90001402992359F0882349F08AEC91E00E94BD
:101BA000C90280910A02812780930A028091220251
:101BB000811181C08091210281117DC02090090195
:101BC00030900A0120911F02309120024901330F09
:101BD000AA08BB080E943B02A101330C660B770BDD
:101BE0009A01AB01281939094A095B09DC010E94F5
:101BF000FF0EA70196010E94D50EDA01C901880DDA
:101C0000991DAA1DBB1D90931E0280931D0220905A
:101C100007013090080120911B0230911C024901FC
:101C2000330FAA08BB0881E00E943B02A101330CDC
:101C3000660B770B9A01AB01281939094A095B0930
:101C4000DC010E94FF0EA70196010E94D50EDA0169
:101C5000C901880D991DAA1DBB1D90931A0280937E
:101C60001902209005013090060120911702309151
:101C700018024901330FAA08BB0882E00E943B0208
:101C8000A101330C660B770B9A01AB0128193909B6
:101C90004A095B09DC010E94FF0EA70196010E9420
:101CA000D50EDA01C901880D991DAA1DBB1D90939F
:101CB000160280931502A0900B01B0900C01B09217
:101CC000CA02A092C90283E00E943B029C012A1929
:101CD0003B0937FF03C03195219531092531310585
:101CE0000CF4C50190930C0180930B01A816B90662
:101CF000D1F020E03FE3DC010E94620FA7019601D2
:101D00000E94D50EDA01C9019F5FAF4FBF4F9C0102
:101D1000990F440B550BC301B2010E94D50E3093AD
:101D200089002093880080911402882369F180E063
:101D30000E943B022EE030E0DC010E94620FA7010E
:101D400096010E94D50EBA01A901475051096109B7
:101D5000710980910301909104018417950721F086
:101D600050930201409301015093040140930301F9
:101D70008091010190910201892B31F481E090E082
:101D800090930201809301010E94740104CE10938C
:101D9000140281ED91E00E94C90288CE10930B02DB
:101DA00085EE91E00E94C90201CF052E97FB1EF43B
:101DB00000940E94EC0E57FD07D00E94070F07FC0D
:101DC00003D04EF40C94EC0E50954095309521952F
:101DD0003F4F4F4F5F4F0895909580957095619557
:101DE0007F4F8F4F9F4F08950E94290FA59F900D01
:101DF000B49F900DA49F800D911D11240895B7FFED
:101E00000C94F40E0E94F40E821B930B0895A1E231
:101E10001A2EAA1BBB1BFD010DC0AA1FBB1FEE1F64
:101E2000FF1FA217B307E407F50720F0A21BB30BAF
:101E3000E40BF50B661F771F881F991F1A9469F72B
:101E400060957095809590959B01AC01BD01CF0187
:101E50000895A29FB001B39FC001A39F700D811D83
:101E60001124911DB29F700D811D1124911D0895A3
:101E7000DB018F939F930E94F40EBF91AF91A29FBD
:101E8000800D911DA39F900DB29F900D1124089578
:101E900097FB072E16F4009407D077FD09D00E9417
:101EA000690F07FC05D03EF4909581959F4F0895EA
:101EB000709561957F4F0895EE0FFF1F0590F49187
:101EC000E02D09940E94290FB7FF0895821B930B00
:101ED0000895AA1BBB1B51E107C0AA1FBB1FA61771
:101EE000B70710F0A61BB70B881F991F5A95A9F7C3
:101EF00080959095BC01CD01089581E090E0F89423
:081F00000C94820FF894FFCF4E
:101F0800010100010063006300630000400000005D
:101F180000FB0052029C004801CD00AB00BF000D41
:101F28000A00524947485420627574746F6E2073D2
:101F3800686F727420707265737300524947485411
:101F4800206C6F6E672070726573732052454C4524
:101F580041534500524947485420627574746F6E66
:101F68002073686F72742072656C656173650050C8
:101F7800524F4752414D3A20004C45465420627515
:101F880074746F6E2073686F7274207072657373E7
:101F9800004C45465420425554544F4E206C6F6EA9
:101FA800672070726573732072656C656173650074
:101FB8004C45465420425554544F4E2073686F7216
:101FC800742072656C65617365004841434B4B4BE7
:101FD800005249474854206C6F6E672070726573D1
:101FE80073204F4E004C45465420425554544F4E92
:101FF800206C6F6E67207072657373204F4E0000FF
:00000001FF
